{
  "_format": "hh-sol-artifact-1",
  "contractName": "MockAVSService",
  "sourceName": "contracts/MockAVSService.sol",
  "abi": [
    {
      "inputs": [
        {
          "internalType": "address",
          "name": "",
          "type": "address"
        }
      ],
      "name": "eligibleUsers",
      "outputs": [
        {
          "internalType": "bool",
          "name": "",
          "type": "bool"
        }
      ],
      "stateMutability": "view",
      "type": "function"
    },
    {
      "inputs": [
        {
          "internalType": "address",
          "name": "user",
          "type": "address"
        }
      ],
      "name": "isEligible",
      "outputs": [
        {
          "internalType": "bool",
          "name": "",
          "type": "bool"
        }
      ],
      "stateMutability": "view",
      "type": "function"
    },
    {
      "inputs": [
        {
          "internalType": "address",
          "name": "user",
          "type": "address"
        },
        {
          "internalType": "bool",
          "name": "eligibilityStatus",
          "type": "bool"
        }
      ],
      "name": "setMockUserEligibility",
      "outputs": [],
      "stateMutability": "nonpayable",
      "type": "function"
    }
  ],
  "bytecode": "0x608060405234801561001057600080fd5b506102f9806100206000396000f3fe608060405234801561001057600080fd5b50600436106100415760003560e01c806366e305fd14610046578063e4d0da4314610076578063fba944a8146100a6575b600080fd5b610060600480360381019061005b91906101f4565b6100c2565b60405161006d919061023c565b60405180910390f35b610090600480360381019061008b91906101f4565b610117565b60405161009d919061023c565b60405180910390f35b6100c060048036038101906100bb9190610283565b610137565b005b60008060008373ffffffffffffffffffffffffffffffffffffffff1673ffffffffffffffffffffffffffffffffffffffff16815260200190815260200160002060009054906101000a900460ff169050919050565b60006020528060005260406000206000915054906101000a900460ff1681565b806000808473ffffffffffffffffffffffffffffffffffffffff1673ffffffffffffffffffffffffffffffffffffffff16815260200190815260200160002060006101000a81548160ff0219169083151502179055505050565b600080fd5b600073ffffffffffffffffffffffffffffffffffffffff82169050919050565b60006101c182610196565b9050919050565b6101d1816101b6565b81146101dc57600080fd5b50565b6000813590506101ee816101c8565b92915050565b60006020828403121561020a57610209610191565b5b6000610218848285016101df565b91505092915050565b60008115159050919050565b61023681610221565b82525050565b6000602082019050610251600083018461022d565b92915050565b61026081610221565b811461026b57600080fd5b50565b60008135905061027d81610257565b92915050565b6000806040838503121561029a57610299610191565b5b60006102a8858286016101df565b92505060206102b98582860161026e565b915050925092905056fea2646970667358221220d4e0651205186a7f7890c0dc3a960d1d42a78a49d307227c223c1dc33b30eae264736f6c634300080d0033",
  "linkReferences": {},
  "deployedLinkReferences": {}
}